{
  "contractName": "lotteryMachine",
  "abi": [
    {
      "inputs": [],
      "stateMutability": "nonpayable",
      "type": "constructor"
    },
    {
      "anonymous": false,
      "inputs": [
        {
          "indexed": true,
          "internalType": "address",
          "name": "owner",
          "type": "address"
        },
        {
          "indexed": true,
          "internalType": "address",
          "name": "approved",
          "type": "address"
        },
        {
          "indexed": true,
          "internalType": "uint256",
          "name": "tokenId",
          "type": "uint256"
        }
      ],
      "name": "Approval",
      "type": "event"
    },
    {
      "anonymous": false,
      "inputs": [
        {
          "indexed": true,
          "internalType": "address",
          "name": "owner",
          "type": "address"
        },
        {
          "indexed": true,
          "internalType": "address",
          "name": "operator",
          "type": "address"
        },
        {
          "indexed": false,
          "internalType": "bool",
          "name": "approved",
          "type": "bool"
        }
      ],
      "name": "ApprovalForAll",
      "type": "event"
    },
    {
      "anonymous": false,
      "inputs": [
        {
          "indexed": true,
          "internalType": "address",
          "name": "previousOwner",
          "type": "address"
        },
        {
          "indexed": true,
          "internalType": "address",
          "name": "newOwner",
          "type": "address"
        }
      ],
      "name": "OwnershipTransferred",
      "type": "event"
    },
    {
      "anonymous": false,
      "inputs": [
        {
          "indexed": true,
          "internalType": "address",
          "name": "from",
          "type": "address"
        },
        {
          "indexed": true,
          "internalType": "address",
          "name": "to",
          "type": "address"
        },
        {
          "indexed": true,
          "internalType": "uint256",
          "name": "tokenId",
          "type": "uint256"
        }
      ],
      "name": "Transfer",
      "type": "event"
    },
    {
      "inputs": [
        {
          "internalType": "address",
          "name": "to",
          "type": "address"
        },
        {
          "internalType": "uint256",
          "name": "tokenId",
          "type": "uint256"
        }
      ],
      "name": "approve",
      "outputs": [],
      "stateMutability": "nonpayable",
      "type": "function"
    },
    {
      "inputs": [
        {
          "internalType": "address",
          "name": "owner",
          "type": "address"
        }
      ],
      "name": "balanceOf",
      "outputs": [
        {
          "internalType": "uint256",
          "name": "",
          "type": "uint256"
        }
      ],
      "stateMutability": "view",
      "type": "function",
      "constant": true
    },
    {
      "inputs": [
        {
          "internalType": "uint256",
          "name": "tokenId",
          "type": "uint256"
        }
      ],
      "name": "getApproved",
      "outputs": [
        {
          "internalType": "address",
          "name": "",
          "type": "address"
        }
      ],
      "stateMutability": "view",
      "type": "function",
      "constant": true
    },
    {
      "inputs": [
        {
          "internalType": "address",
          "name": "owner",
          "type": "address"
        },
        {
          "internalType": "address",
          "name": "operator",
          "type": "address"
        }
      ],
      "name": "isApprovedForAll",
      "outputs": [
        {
          "internalType": "bool",
          "name": "",
          "type": "bool"
        }
      ],
      "stateMutability": "view",
      "type": "function",
      "constant": true
    },
    {
      "inputs": [],
      "name": "name",
      "outputs": [
        {
          "internalType": "string",
          "name": "",
          "type": "string"
        }
      ],
      "stateMutability": "view",
      "type": "function",
      "constant": true
    },
    {
      "inputs": [],
      "name": "owner",
      "outputs": [
        {
          "internalType": "address",
          "name": "",
          "type": "address"
        }
      ],
      "stateMutability": "view",
      "type": "function",
      "constant": true
    },
    {
      "inputs": [
        {
          "internalType": "uint256",
          "name": "tokenId",
          "type": "uint256"
        }
      ],
      "name": "ownerOf",
      "outputs": [
        {
          "internalType": "address",
          "name": "",
          "type": "address"
        }
      ],
      "stateMutability": "view",
      "type": "function",
      "constant": true
    },
    {
      "inputs": [],
      "name": "renounceOwnership",
      "outputs": [],
      "stateMutability": "nonpayable",
      "type": "function"
    },
    {
      "inputs": [
        {
          "internalType": "address",
          "name": "from",
          "type": "address"
        },
        {
          "internalType": "address",
          "name": "to",
          "type": "address"
        },
        {
          "internalType": "uint256",
          "name": "tokenId",
          "type": "uint256"
        }
      ],
      "name": "safeTransferFrom",
      "outputs": [],
      "stateMutability": "nonpayable",
      "type": "function"
    },
    {
      "inputs": [
        {
          "internalType": "address",
          "name": "from",
          "type": "address"
        },
        {
          "internalType": "address",
          "name": "to",
          "type": "address"
        },
        {
          "internalType": "uint256",
          "name": "tokenId",
          "type": "uint256"
        },
        {
          "internalType": "bytes",
          "name": "_data",
          "type": "bytes"
        }
      ],
      "name": "safeTransferFrom",
      "outputs": [],
      "stateMutability": "nonpayable",
      "type": "function"
    },
    {
      "inputs": [
        {
          "internalType": "address",
          "name": "operator",
          "type": "address"
        },
        {
          "internalType": "bool",
          "name": "approved",
          "type": "bool"
        }
      ],
      "name": "setApprovalForAll",
      "outputs": [],
      "stateMutability": "nonpayable",
      "type": "function"
    },
    {
      "inputs": [
        {
          "internalType": "bytes4",
          "name": "interfaceId",
          "type": "bytes4"
        }
      ],
      "name": "supportsInterface",
      "outputs": [
        {
          "internalType": "bool",
          "name": "",
          "type": "bool"
        }
      ],
      "stateMutability": "view",
      "type": "function",
      "constant": true
    },
    {
      "inputs": [],
      "name": "symbol",
      "outputs": [
        {
          "internalType": "string",
          "name": "",
          "type": "string"
        }
      ],
      "stateMutability": "view",
      "type": "function",
      "constant": true
    },
    {
      "inputs": [
        {
          "internalType": "uint256",
          "name": "tokenId",
          "type": "uint256"
        }
      ],
      "name": "tokenURI",
      "outputs": [
        {
          "internalType": "string",
          "name": "",
          "type": "string"
        }
      ],
      "stateMutability": "view",
      "type": "function",
      "constant": true
    },
    {
      "inputs": [],
      "name": "totalTokensMinted",
      "outputs": [
        {
          "internalType": "uint256",
          "name": "",
          "type": "uint256"
        }
      ],
      "stateMutability": "view",
      "type": "function",
      "constant": true
    },
    {
      "inputs": [
        {
          "internalType": "address",
          "name": "from",
          "type": "address"
        },
        {
          "internalType": "address",
          "name": "to",
          "type": "address"
        },
        {
          "internalType": "uint256",
          "name": "tokenId",
          "type": "uint256"
        }
      ],
      "name": "transferFrom",
      "outputs": [],
      "stateMutability": "nonpayable",
      "type": "function"
    },
    {
      "inputs": [
        {
          "internalType": "address",
          "name": "newOwner",
          "type": "address"
        }
      ],
      "name": "transferOwnership",
      "outputs": [],
      "stateMutability": "nonpayable",
      "type": "function"
    },
    {
      "inputs": [
        {
          "internalType": "uint256",
          "name": "numberOfTokens",
          "type": "uint256"
        }
      ],
      "name": "mintAll",
      "outputs": [],
      "stateMutability": "nonpayable",
      "type": "function"
    },
    {
      "inputs": [
        {
          "internalType": "address",
          "name": "to",
          "type": "address"
        },
        {
          "internalType": "uint256",
          "name": "tokenId",
          "type": "uint256"
        }
      ],
      "name": "transfer",
      "outputs": [],
      "stateMutability": "nonpayable",
      "type": "function"
    }
  ],
  "bytecode": "0x60806040523480156200001157600080fd5b506040518060400160405280600581526020017f4d794e46540000000000000000000000000000000000000000000000000000008152506040518060400160405280600481526020017f4d4e465400000000000000000000000000000000000000000000000000000000815250816000908051906020019062000096929190620001a6565b508060019080519060200190620000af929190620001a6565b505050620000d2620000c6620000d860201b60201c565b620000e060201b60201c565b620002bb565b600033905090565b6000600660009054906101000a900473ffffffffffffffffffffffffffffffffffffffff16905081600660006101000a81548173ffffffffffffffffffffffffffffffffffffffff021916908373ffffffffffffffffffffffffffffffffffffffff1602179055508173ffffffffffffffffffffffffffffffffffffffff168173ffffffffffffffffffffffffffffffffffffffff167f8be0079c531659141344cd1fd0a4f28419497f9722a3daafe3b4186f6b6457e060405160405180910390a35050565b828054620001b49062000256565b90600052602060002090601f016020900481019282620001d8576000855562000224565b82601f10620001f357805160ff191683800117855562000224565b8280016001018555821562000224579182015b828111156200022357825182559160200191906001019062000206565b5b50905062000233919062000237565b5090565b5b808211156200025257600081600090555060010162000238565b5090565b600060028204905060018216806200026f57607f821691505b602082108114156200028657620002856200028c565b5b50919050565b7f4e487b7100000000000000000000000000000000000000000000000000000000600052602260045260246000fd5b612d7580620002cb6000396000f3fe608060405234801561001057600080fd5b50600436106101215760003560e01c8063715018a6116100ad578063a9059cbb11610071578063a9059cbb146102f4578063b88d4fde14610310578063c87b56dd1461032c578063e985e9c51461035c578063f2fde38b1461038c57610121565b8063715018a6146102745780637d549e991461027e5780638da5cb5b1461029c57806395d89b41146102ba578063a22cb465146102d857610121565b806323b872dd116100f457806323b872dd146101c057806328a09e94146101dc57806342842e0e146101f85780636352211e1461021457806370a082311461024457610121565b806301ffc9a71461012657806306fdde0314610156578063081812fc14610174578063095ea7b3146101a4575b600080fd5b610140600480360381019061013b9190611e0d565b6103a8565b60405161014d9190612236565b60405180910390f35b61015e61048a565b60405161016b9190612251565b60405180910390f35b61018e60048036038101906101899190611e5f565b61051c565b60405161019b91906121cf565b60405180910390f35b6101be60048036038101906101b99190611dd1565b6105a1565b005b6101da60048036038101906101d59190611ccb565b6106b9565b005b6101f660048036038101906101f19190611e5f565b610719565b005b610212600480360381019061020d9190611ccb565b6107db565b005b61022e60048036038101906102299190611e5f565b6107fb565b60405161023b91906121cf565b60405180910390f35b61025e60048036038101906102599190611c66565b6108ad565b60405161026b9190612493565b60405180910390f35b61027c610965565b005b6102866109ed565b6040516102939190612493565b60405180910390f35b6102a46109f3565b6040516102b191906121cf565b60405180910390f35b6102c2610a1d565b6040516102cf9190612251565b60405180910390f35b6102f260048036038101906102ed9190611d95565b610aaf565b005b61030e60048036038101906103099190611dd1565b610c30565b005b61032a60048036038101906103259190611d1a565b610d53565b005b61034660048036038101906103419190611e5f565b610db5565b6040516103539190612251565b60405180910390f35b61037660048036038101906103719190611c8f565b610e5c565b6040516103839190612236565b60405180910390f35b6103a660048036038101906103a19190611c66565b610ef0565b005b60007f80ac58cd000000000000000000000000000000000000000000000000000000007bffffffffffffffffffffffffffffffffffffffffffffffffffffffff1916827bffffffffffffffffffffffffffffffffffffffffffffffffffffffff1916148061047357507f5b5e139f000000000000000000000000000000000000000000000000000000007bffffffffffffffffffffffffffffffffffffffffffffffffffffffff1916827bffffffffffffffffffffffffffffffffffffffffffffffffffffffff1916145b80610483575061048282610fe8565b5b9050919050565b606060008054610499906126b8565b80601f01602080910402602001604051908101604052809291908181526020018280546104c5906126b8565b80156105125780601f106104e757610100808354040283529160200191610512565b820191906000526020600020905b8154815290600101906020018083116104f557829003601f168201915b5050505050905090565b600061052782611052565b610566576040517f08c379a000000000000000000000000000000000000000000000000000000000815260040161055d906123b3565b60405180910390fd5b6004600083815260200190815260200160002060009054906101000a900473ffffffffffffffffffffffffffffffffffffffff169050919050565b60006105ac826107fb565b90508073ffffffffffffffffffffffffffffffffffffffff168373ffffffffffffffffffffffffffffffffffffffff16141561061d576040517f08c379a000000000000000000000000000000000000000000000000000000000815260040161061490612433565b60405180910390fd5b8073ffffffffffffffffffffffffffffffffffffffff1661063c6110be565b73ffffffffffffffffffffffffffffffffffffffff16148061066b575061066a816106656110be565b610e5c565b5b6106aa576040517f08c379a00000000000000000000000000000000000000000000000000000000081526004016106a190612333565b60405180910390fd5b6106b483836110c6565b505050565b6106ca6106c46110be565b8261117f565b610709576040517f08c379a000000000000000000000000000000000000000000000000000000000815260040161070090612453565b60405180910390fd5b61071483838361125d565b505050565b6107216110be565b73ffffffffffffffffffffffffffffffffffffffff1661073f6109f3565b73ffffffffffffffffffffffffffffffffffffffff1614610795576040517f08c379a000000000000000000000000000000000000000000000000000000000815260040161078c906123d3565b60405180910390fd5b60005b818110156107d757600760008154809291906107b39061271b565b91905055506107c4336007546114b9565b80806107cf9061271b565b915050610798565b5050565b6107f683838360405180602001604052806000815250610d53565b505050565b6000806002600084815260200190815260200160002060009054906101000a900473ffffffffffffffffffffffffffffffffffffffff169050600073ffffffffffffffffffffffffffffffffffffffff168173ffffffffffffffffffffffffffffffffffffffff1614156108a4576040517f08c379a000000000000000000000000000000000000000000000000000000000815260040161089b90612373565b60405180910390fd5b80915050919050565b60008073ffffffffffffffffffffffffffffffffffffffff168273ffffffffffffffffffffffffffffffffffffffff16141561091e576040517f08c379a000000000000000000000000000000000000000000000000000000000815260040161091590612353565b60405180910390fd5b600360008373ffffffffffffffffffffffffffffffffffffffff1673ffffffffffffffffffffffffffffffffffffffff168152602001908152602001600020549050919050565b61096d6110be565b73ffffffffffffffffffffffffffffffffffffffff1661098b6109f3565b73ffffffffffffffffffffffffffffffffffffffff16146109e1576040517f08c379a00000000000000000000000000000000000000000000000000000000081526004016109d8906123d3565b60405180910390fd5b6109eb60006114d7565b565b60075481565b6000600660009054906101000a900473ffffffffffffffffffffffffffffffffffffffff16905090565b606060018054610a2c906126b8565b80601f0160208091040260200160405190810160405280929190818152602001828054610a58906126b8565b8015610aa55780601f10610a7a57610100808354040283529160200191610aa5565b820191906000526020600020905b815481529060010190602001808311610a8857829003601f168201915b5050505050905090565b610ab76110be565b73ffffffffffffffffffffffffffffffffffffffff168273ffffffffffffffffffffffffffffffffffffffff161415610b25576040517f08c379a0000000000000000000000000000000000000000000000000000000008152600401610b1c906122f3565b60405180910390fd5b8060056000610b326110be565b73ffffffffffffffffffffffffffffffffffffffff1673ffffffffffffffffffffffffffffffffffffffff16815260200190815260200160002060008473ffffffffffffffffffffffffffffffffffffffff1673ffffffffffffffffffffffffffffffffffffffff16815260200190815260200160002060006101000a81548160ff0219169083151502179055508173ffffffffffffffffffffffffffffffffffffffff16610bdf6110be565b73ffffffffffffffffffffffffffffffffffffffff167f17307eab39ab6107e8899845ad3d59bd9653f200f220920489ca2b5937696c3183604051610c249190612236565b60405180910390a35050565b610c386110be565b73ffffffffffffffffffffffffffffffffffffffff16610c566109f3565b73ffffffffffffffffffffffffffffffffffffffff1614610cac576040517f08c379a0000000000000000000000000000000000000000000000000000000008152600401610ca3906123d3565b60405180910390fd5b610cb581611052565b610cf4576040517f08c379a0000000000000000000000000000000000000000000000000000000008152600401610ceb90612473565b60405180910390fd5b610cfe338261117f565b610d3d576040517f08c379a0000000000000000000000000000000000000000000000000000000008152600401610d3490612453565b60405180910390fd5b610d4f610d486110be565b838361125d565b5050565b610d64610d5e6110be565b8361117f565b610da3576040517f08c379a0000000000000000000000000000000000000000000000000000000008152600401610d9a90612453565b60405180910390fd5b610daf8484848461159d565b50505050565b6060610dc082611052565b610dff576040517f08c379a0000000000000000000000000000000000000000000000000000000008152600401610df690612413565b60405180910390fd5b6000610e096115f9565b90506000815111610e295760405180602001604052806000815250610e54565b80610e3384611610565b604051602001610e449291906121ab565b6040516020818303038152906040525b915050919050565b6000600560008473ffffffffffffffffffffffffffffffffffffffff1673ffffffffffffffffffffffffffffffffffffffff16815260200190815260200160002060008373ffffffffffffffffffffffffffffffffffffffff1673ffffffffffffffffffffffffffffffffffffffff16815260200190815260200160002060009054906101000a900460ff16905092915050565b610ef86110be565b73ffffffffffffffffffffffffffffffffffffffff16610f166109f3565b73ffffffffffffffffffffffffffffffffffffffff1614610f6c576040517f08c379a0000000000000000000000000000000000000000000000000000000008152600401610f63906123d3565b60405180910390fd5b600073ffffffffffffffffffffffffffffffffffffffff168173ffffffffffffffffffffffffffffffffffffffff161415610fdc576040517f08c379a0000000000000000000000000000000000000000000000000000000008152600401610fd390612293565b60405180910390fd5b610fe5816114d7565b50565b60007f01ffc9a7000000000000000000000000000000000000000000000000000000007bffffffffffffffffffffffffffffffffffffffffffffffffffffffff1916827bffffffffffffffffffffffffffffffffffffffffffffffffffffffff1916149050919050565b60008073ffffffffffffffffffffffffffffffffffffffff166002600084815260200190815260200160002060009054906101000a900473ffffffffffffffffffffffffffffffffffffffff1673ffffffffffffffffffffffffffffffffffffffff1614159050919050565b600033905090565b816004600083815260200190815260200160002060006101000a81548173ffffffffffffffffffffffffffffffffffffffff021916908373ffffffffffffffffffffffffffffffffffffffff160217905550808273ffffffffffffffffffffffffffffffffffffffff16611139836107fb565b73ffffffffffffffffffffffffffffffffffffffff167f8c5be1e5ebec7d5bd14f71427d1e84f3dd0314c0f7b2291e5b200ac8c7c3b92560405160405180910390a45050565b600061118a82611052565b6111c9576040517f08c379a00000000000000000000000000000000000000000000000000000000081526004016111c090612313565b60405180910390fd5b60006111d4836107fb565b90508073ffffffffffffffffffffffffffffffffffffffff168473ffffffffffffffffffffffffffffffffffffffff16148061124357508373ffffffffffffffffffffffffffffffffffffffff1661122b8461051c565b73ffffffffffffffffffffffffffffffffffffffff16145b8061125457506112538185610e5c565b5b91505092915050565b8273ffffffffffffffffffffffffffffffffffffffff1661127d826107fb565b73ffffffffffffffffffffffffffffffffffffffff16146112d3576040517f08c379a00000000000000000000000000000000000000000000000000000000081526004016112ca906123f3565b60405180910390fd5b600073ffffffffffffffffffffffffffffffffffffffff168273ffffffffffffffffffffffffffffffffffffffff161415611343576040517f08c379a000000000000000000000000000000000000000000000000000000000815260040161133a906122d3565b60405180910390fd5b61134e8383836117bd565b6113596000826110c6565b6001600360008573ffffffffffffffffffffffffffffffffffffffff1673ffffffffffffffffffffffffffffffffffffffff16815260200190815260200160002060008282546113a991906125ce565b925050819055506001600360008473ffffffffffffffffffffffffffffffffffffffff1673ffffffffffffffffffffffffffffffffffffffff16815260200190815260200160002060008282546114009190612547565b92505081905550816002600083815260200190815260200160002060006101000a81548173ffffffffffffffffffffffffffffffffffffffff021916908373ffffffffffffffffffffffffffffffffffffffff160217905550808273ffffffffffffffffffffffffffffffffffffffff168473ffffffffffffffffffffffffffffffffffffffff167fddf252ad1be2c89b69c2b068fc378daa952ba7f163c4a11628f55a4df523b3ef60405160405180910390a4505050565b6114d38282604051806020016040528060008152506117c2565b5050565b6000600660009054906101000a900473ffffffffffffffffffffffffffffffffffffffff16905081600660006101000a81548173ffffffffffffffffffffffffffffffffffffffff021916908373ffffffffffffffffffffffffffffffffffffffff1602179055508173ffffffffffffffffffffffffffffffffffffffff168173ffffffffffffffffffffffffffffffffffffffff167f8be0079c531659141344cd1fd0a4f28419497f9722a3daafe3b4186f6b6457e060405160405180910390a35050565b6115a884848461125d565b6115b48484848461181d565b6115f3576040517f08c379a00000000000000000000000000000000000000000000000000000000081526004016115ea90612273565b60405180910390fd5b50505050565b606060405180602001604052806000815250905090565b60606000821415611658576040518060400160405280600181526020017f300000000000000000000000000000000000000000000000000000000000000081525090506117b8565b600082905060005b6000821461168a5780806116739061271b565b915050600a82611683919061259d565b9150611660565b60008167ffffffffffffffff8111156116cc577f4e487b7100000000000000000000000000000000000000000000000000000000600052604160045260246000fd5b6040519080825280601f01601f1916602001820160405280156116fe5781602001600182028036833780820191505090505b5090505b600085146117b15760018261171791906125ce565b9150600a856117269190612764565b60306117329190612547565b60f81b81838151811061176e577f4e487b7100000000000000000000000000000000000000000000000000000000600052603260045260246000fd5b60200101907effffffffffffffffffffffffffffffffffffffffffffffffffffffffffffff1916908160001a905350600a856117aa919061259d565b9450611702565b8093505050505b919050565b505050565b6117cc83836119b4565b6117d9600084848461181d565b611818576040517f08c379a000000000000000000000000000000000000000000000000000000000815260040161180f90612273565b60405180910390fd5b505050565b600061183e8473ffffffffffffffffffffffffffffffffffffffff16611b82565b156119a7578373ffffffffffffffffffffffffffffffffffffffff1663150b7a026118676110be565b8786866040518563ffffffff1660e01b815260040161188994939291906121ea565b602060405180830381600087803b1580156118a357600080fd5b505af19250505080156118d457506040513d601f19601f820116820180604052508101906118d19190611e36565b60015b611957573d8060008114611904576040519150601f19603f3d011682016040523d82523d6000602084013e611909565b606091505b5060008151141561194f576040517f08c379a000000000000000000000000000000000000000000000000000000000815260040161194690612273565b60405180910390fd5b805181602001fd5b63150b7a0260e01b7bffffffffffffffffffffffffffffffffffffffffffffffffffffffff1916817bffffffffffffffffffffffffffffffffffffffffffffffffffffffff1916149150506119ac565b600190505b949350505050565b600073ffffffffffffffffffffffffffffffffffffffff168273ffffffffffffffffffffffffffffffffffffffff161415611a24576040517f08c379a0000000000000000000000000000000000000000000000000000000008152600401611a1b90612393565b60405180910390fd5b611a2d81611052565b15611a6d576040517f08c379a0000000000000000000000000000000000000000000000000000000008152600401611a64906122b3565b60405180910390fd5b611a79600083836117bd565b6001600360008473ffffffffffffffffffffffffffffffffffffffff1673ffffffffffffffffffffffffffffffffffffffff1681526020019081526020016000206000828254611ac99190612547565b92505081905550816002600083815260200190815260200160002060006101000a81548173ffffffffffffffffffffffffffffffffffffffff021916908373ffffffffffffffffffffffffffffffffffffffff160217905550808273ffffffffffffffffffffffffffffffffffffffff16600073ffffffffffffffffffffffffffffffffffffffff167fddf252ad1be2c89b69c2b068fc378daa952ba7f163c4a11628f55a4df523b3ef60405160405180910390a45050565b600080823b905060008111915050919050565b6000611ba8611ba3846124d3565b6124ae565b905082815260208101848484011115611bc057600080fd5b611bcb848285612676565b509392505050565b600081359050611be281612ce3565b92915050565b600081359050611bf781612cfa565b92915050565b600081359050611c0c81612d11565b92915050565b600081519050611c2181612d11565b92915050565b600082601f830112611c3857600080fd5b8135611c48848260208601611b95565b91505092915050565b600081359050611c6081612d28565b92915050565b600060208284031215611c7857600080fd5b6000611c8684828501611bd3565b91505092915050565b60008060408385031215611ca257600080fd5b6000611cb085828601611bd3565b9250506020611cc185828601611bd3565b9150509250929050565b600080600060608486031215611ce057600080fd5b6000611cee86828701611bd3565b9350506020611cff86828701611bd3565b9250506040611d1086828701611c51565b9150509250925092565b60008060008060808587031215611d3057600080fd5b6000611d3e87828801611bd3565b9450506020611d4f87828801611bd3565b9350506040611d6087828801611c51565b925050606085013567ffffffffffffffff811115611d7d57600080fd5b611d8987828801611c27565b91505092959194509250565b60008060408385031215611da857600080fd5b6000611db685828601611bd3565b9250506020611dc785828601611be8565b9150509250929050565b60008060408385031215611de457600080fd5b6000611df285828601611bd3565b9250506020611e0385828601611c51565b9150509250929050565b600060208284031215611e1f57600080fd5b6000611e2d84828501611bfd565b91505092915050565b600060208284031215611e4857600080fd5b6000611e5684828501611c12565b91505092915050565b600060208284031215611e7157600080fd5b6000611e7f84828501611c51565b91505092915050565b611e9181612602565b82525050565b611ea081612614565b82525050565b6000611eb182612504565b611ebb818561251a565b9350611ecb818560208601612685565b611ed481612851565b840191505092915050565b6000611eea8261250f565b611ef4818561252b565b9350611f04818560208601612685565b611f0d81612851565b840191505092915050565b6000611f238261250f565b611f2d818561253c565b9350611f3d818560208601612685565b80840191505092915050565b6000611f5660328361252b565b9150611f6182612862565b604082019050919050565b6000611f7960268361252b565b9150611f84826128b1565b604082019050919050565b6000611f9c601c8361252b565b9150611fa782612900565b602082019050919050565b6000611fbf60248361252b565b9150611fca82612929565b604082019050919050565b6000611fe260198361252b565b9150611fed82612978565b602082019050919050565b6000612005602c8361252b565b9150612010826129a1565b604082019050919050565b600061202860388361252b565b9150612033826129f0565b604082019050919050565b600061204b602a8361252b565b915061205682612a3f565b604082019050919050565b600061206e60298361252b565b915061207982612a8e565b604082019050919050565b600061209160208361252b565b915061209c82612add565b602082019050919050565b60006120b4602c8361252b565b91506120bf82612b06565b604082019050919050565b60006120d760208361252b565b91506120e282612b55565b602082019050919050565b60006120fa60298361252b565b915061210582612b7e565b604082019050919050565b600061211d602f8361252b565b915061212882612bcd565b604082019050919050565b600061214060218361252b565b915061214b82612c1c565b604082019050919050565b600061216360318361252b565b915061216e82612c6b565b604082019050919050565b6000612186601c8361252b565b915061219182612cba565b602082019050919050565b6121a58161266c565b82525050565b60006121b78285611f18565b91506121c38284611f18565b91508190509392505050565b60006020820190506121e46000830184611e88565b92915050565b60006080820190506121ff6000830187611e88565b61220c6020830186611e88565b612219604083018561219c565b818103606083015261222b8184611ea6565b905095945050505050565b600060208201905061224b6000830184611e97565b92915050565b6000602082019050818103600083015261226b8184611edf565b905092915050565b6000602082019050818103600083015261228c81611f49565b9050919050565b600060208201905081810360008301526122ac81611f6c565b9050919050565b600060208201905081810360008301526122cc81611f8f565b9050919050565b600060208201905081810360008301526122ec81611fb2565b9050919050565b6000602082019050818103600083015261230c81611fd5565b9050919050565b6000602082019050818103600083015261232c81611ff8565b9050919050565b6000602082019050818103600083015261234c8161201b565b9050919050565b6000602082019050818103600083015261236c8161203e565b9050919050565b6000602082019050818103600083015261238c81612061565b9050919050565b600060208201905081810360008301526123ac81612084565b9050919050565b600060208201905081810360008301526123cc816120a7565b9050919050565b600060208201905081810360008301526123ec816120ca565b9050919050565b6000602082019050818103600083015261240c816120ed565b9050919050565b6000602082019050818103600083015261242c81612110565b9050919050565b6000602082019050818103600083015261244c81612133565b9050919050565b6000602082019050818103600083015261246c81612156565b9050919050565b6000602082019050818103600083015261248c81612179565b9050919050565b60006020820190506124a8600083018461219c565b92915050565b60006124b86124c9565b90506124c482826126ea565b919050565b6000604051905090565b600067ffffffffffffffff8211156124ee576124ed612822565b5b6124f782612851565b9050602081019050919050565b600081519050919050565b600081519050919050565b600082825260208201905092915050565b600082825260208201905092915050565b600081905092915050565b60006125528261266c565b915061255d8361266c565b9250827fffffffffffffffffffffffffffffffffffffffffffffffffffffffffffffffff0382111561259257612591612795565b5b828201905092915050565b60006125a88261266c565b91506125b38361266c565b9250826125c3576125c26127c4565b5b828204905092915050565b60006125d98261266c565b91506125e48361266c565b9250828210156125f7576125f6612795565b5b828203905092915050565b600061260d8261264c565b9050919050565b60008115159050919050565b60007fffffffff0000000000000000000000000000000000000000000000000000000082169050919050565b600073ffffffffffffffffffffffffffffffffffffffff82169050919050565b6000819050919050565b82818337600083830152505050565b60005b838110156126a3578082015181840152602081019050612688565b838111156126b2576000848401525b50505050565b600060028204905060018216806126d057607f821691505b602082108114156126e4576126e36127f3565b5b50919050565b6126f382612851565b810181811067ffffffffffffffff8211171561271257612711612822565b5b80604052505050565b60006127268261266c565b91507fffffffffffffffffffffffffffffffffffffffffffffffffffffffffffffffff82141561275957612758612795565b5b600182019050919050565b600061276f8261266c565b915061277a8361266c565b92508261278a576127896127c4565b5b828206905092915050565b7f4e487b7100000000000000000000000000000000000000000000000000000000600052601160045260246000fd5b7f4e487b7100000000000000000000000000000000000000000000000000000000600052601260045260246000fd5b7f4e487b7100000000000000000000000000000000000000000000000000000000600052602260045260246000fd5b7f4e487b7100000000000000000000000000000000000000000000000000000000600052604160045260246000fd5b6000601f19601f8301169050919050565b7f4552433732313a207472616e7366657220746f206e6f6e20455243373231526560008201527f63656976657220696d706c656d656e7465720000000000000000000000000000602082015250565b7f4f776e61626c653a206e6577206f776e657220697320746865207a65726f206160008201527f6464726573730000000000000000000000000000000000000000000000000000602082015250565b7f4552433732313a20746f6b656e20616c7265616479206d696e74656400000000600082015250565b7f4552433732313a207472616e7366657220746f20746865207a65726f2061646460008201527f7265737300000000000000000000000000000000000000000000000000000000602082015250565b7f4552433732313a20617070726f766520746f2063616c6c657200000000000000600082015250565b7f4552433732313a206f70657261746f7220717565727920666f72206e6f6e657860008201527f697374656e7420746f6b656e0000000000000000000000000000000000000000602082015250565b7f4552433732313a20617070726f76652063616c6c6572206973206e6f74206f7760008201527f6e6572206e6f7220617070726f76656420666f7220616c6c0000000000000000602082015250565b7f4552433732313a2062616c616e636520717565727920666f7220746865207a6560008201527f726f206164647265737300000000000000000000000000000000000000000000602082015250565b7f4552433732313a206f776e657220717565727920666f72206e6f6e657869737460008201527f656e7420746f6b656e0000000000000000000000000000000000000000000000602082015250565b7f4552433732313a206d696e7420746f20746865207a65726f2061646472657373600082015250565b7f4552433732313a20617070726f76656420717565727920666f72206e6f6e657860008201527f697374656e7420746f6b656e0000000000000000000000000000000000000000602082015250565b7f4f776e61626c653a2063616c6c6572206973206e6f7420746865206f776e6572600082015250565b7f4552433732313a207472616e73666572206f6620746f6b656e2074686174206960008201527f73206e6f74206f776e0000000000000000000000000000000000000000000000602082015250565b7f4552433732314d657461646174613a2055524920717565727920666f72206e6f60008201527f6e6578697374656e7420746f6b656e0000000000000000000000000000000000602082015250565b7f4552433732313a20617070726f76616c20746f2063757272656e74206f776e6560008201527f7200000000000000000000000000000000000000000000000000000000000000602082015250565b7f4552433732313a207472616e736665722063616c6c6572206973206e6f74206f60008201527f776e6572206e6f7220617070726f766564000000000000000000000000000000602082015250565b7f4552433732313a20746f6b656e20646f6573206e6f7420657869737400000000600082015250565b612cec81612602565b8114612cf757600080fd5b50565b612d0381612614565b8114612d0e57600080fd5b50565b612d1a81612620565b8114612d2557600080fd5b50565b612d318161266c565b8114612d3c57600080fd5b5056fea2646970667358221220ec3ac7295c68f06de1c6d8db66ac95a3e72f5be7cff9b8098b819280a11bfe5c64736f6c63430008030033",
  "immutableReferences": {},
  "source": "// SPDX-License-Identifier: UNLICENSED\npragma solidity ^0.8.0;\n\nimport \"@openzeppelin/contracts/token/ERC721/ERC721.sol\";\nimport \"@openzeppelin/contracts/access/Ownable.sol\";\n\ncontract lotteryMachine is ERC721, Ownable {\n    constructor() ERC721(\"MyNFT\", \"MNFT\") {}\n\n    uint256 public totalTokensMinted;\n\n    function mintAll(uint256 numberOfTokens) public onlyOwner {\n        for (uint256 i = 0; i < numberOfTokens; i++) {\n            totalTokensMinted++;\n            _safeMint(msg.sender, totalTokensMinted);\n        }\n    }\n\n    function transfer(address to, uint256 tokenId) public onlyOwner {\n        require(_exists(tokenId), \"ERC721: token does not exist\");\n        require(_isApprovedOrOwner(msg.sender, tokenId), \"ERC721: transfer caller is not owner nor approved\");\n        _transfer(_msgSender(), to, tokenId);\n    }\n}\n",
  "sourcePath": "/Users/emiliocramer/developer/Lottus/src/lottus-mvp/src/lottery-deployer/contracts/lotteryMachine.sol",
  "compiler": {
    "name": "solc",
    "version": "0.8.3+commit.8d00100c.Emscripten.clang"
  },
  "schemaVersion": "3.4.12",
  "updatedAt": "2023-02-26T19:04:37.064Z",
  "networkType": "ethereum",
  "devdoc": {
    "kind": "dev",
    "methods": {
      "approve(address,uint256)": {
        "details": "See {IERC721-approve}."
      },
      "balanceOf(address)": {
        "details": "See {IERC721-balanceOf}."
      },
      "getApproved(uint256)": {
        "details": "See {IERC721-getApproved}."
      },
      "isApprovedForAll(address,address)": {
        "details": "See {IERC721-isApprovedForAll}."
      },
      "name()": {
        "details": "See {IERC721Metadata-name}."
      },
      "owner()": {
        "details": "Returns the address of the current owner."
      },
      "ownerOf(uint256)": {
        "details": "See {IERC721-ownerOf}."
      },
      "renounceOwnership()": {
        "details": "Leaves the contract without owner. It will not be possible to call `onlyOwner` functions anymore. Can only be called by the current owner. NOTE: Renouncing ownership will leave the contract without an owner, thereby removing any functionality that is only available to the owner."
      },
      "safeTransferFrom(address,address,uint256)": {
        "details": "See {IERC721-safeTransferFrom}."
      },
      "safeTransferFrom(address,address,uint256,bytes)": {
        "details": "See {IERC721-safeTransferFrom}."
      },
      "setApprovalForAll(address,bool)": {
        "details": "See {IERC721-setApprovalForAll}."
      },
      "supportsInterface(bytes4)": {
        "details": "See {IERC165-supportsInterface}."
      },
      "symbol()": {
        "details": "See {IERC721Metadata-symbol}."
      },
      "tokenURI(uint256)": {
        "details": "See {IERC721Metadata-tokenURI}."
      },
      "transferFrom(address,address,uint256)": {
        "details": "See {IERC721-transferFrom}."
      },
      "transferOwnership(address)": {
        "details": "Transfers ownership of the contract to a new account (`newOwner`). Can only be called by the current owner."
      }
    },
    "version": 1
  },
  "userdoc": {
    "kind": "user",
    "methods": {},
    "version": 1
  }
}